S0130000496E635F4465636F6465722E73726563E2
S11300000C942A000C9447000C9447000C9447006D
S11300100C9447000C9447000C9469030C9447001B
S11300200C9447000C94FC030C9425030C94E102FB
S11300300C9447000C9447000C9447000C94470020
S11300400C9447000C9447000C9447000C94470010
S11300500C94470011241FBECFE5D8E0DEBFCDBF0E
S113006010E0A0E6B0E0EEEBF8E002C005900D92DF
S1130070A237B107D9F720E0A2E7B0E001C01D9292
S1130080A039B207E1F70E945A020C945D040C9463
S11300900000442379F1413009F05FC0813079F0E8
S11300A028F08230A9F08330E1F008952AB381E08A
S11300B090E001C0880F6A95EAF7822B2CC027B321
S11300C081E090E001C0880F6A95EAF7822B2EC088
S11300D024B381E090E001C0880F6A95EAF7822B8F
S11300E030C021B381E090E001C0880F6A95EAF73F
S11300F0822B32C0813089F028F08230C9F08330FD
S113010011F108952AB381E090E001C0880F6A9547
S1130110EAF7809582238ABB089527B381E090E0B3
S113012001C0880F6A95EAF78095822387BB0895FA
S113013024B381E090E001C0880F6A95EAF78095C6
S1130140822384BB089521B381E090E001C0880F2D
S11301506A95EAF78095822381BB0895442379F157
S1130160413009F05FC0813079F028F08230A9F085
S11301708330E1F008952BB381E090E001C0880F53
S11301806A95EAF7822B2CC028B381E090E001C085
S1130190880F6A95EAF7822B2EC025B381E090E0A0
S11301A001C0880F6A95EAF7822B30C022B381E040
S11301B090E001C0880F6A95EAF7822B32C0813043
S11301C089F028F08230C9F0833011F108952BB3FF
S11301D081E090E001C0880F6A95EAF78095822358
S11301E08BBB089528B381E090E001C0880F6A9525
S11301F0EAF78095822388BB089525B381E090E0D7
S113020001C0880F6A95EAF78095822385BB08951B
S113021022B381E090E001C0880F6A95EAF78095E7
S1130220822382BB0895CF93C82F40E061E081E030
S11302300E94AE0040E062E081E00E94AE0040E037
S113024063E081E00E94AE008BB39C2F907F8F709F
S1130250892B8BBB41E063E081E00E94AE008FE913
S11302609FE00197F1F700C0000040E063E081E007
S11302700E94AE002BB330E1C39FC0011124922F22
S11302809F70892B8BBB41E063E081E00E94AE004C
S11302908FE99FE00197F1F700C0000040E063E0C0
S11302A081E00E94AE008FE19EE40197F1F700C067
S11302B00000CF91089541E061E081E00E9449008F
S11302C041E062E081E00E94490041E063E081E0B6
S11302D00E94490041E064E080E00E94490041E05E
S11302E065E080E00E94490041E066E080E00E9411
S11302F0490041E067E080E00E9449002FEF81EE71
S113030094E0215080409040E1F700C0000083E376
S11303100E94130182E30E94130188E20E941301E8
S11303208CE00E94130181E00E94130186E00E9488
S1130330130182E00C941301CF93C82F41E061E0D4
S113034081E00E94AE0040E062E081E00E94AE00E5
S113035040E063E081E00E94AE008C2F807F8BBB85
S113036041E063E081E00E94AE008FE99FE00197E5
S1130370F1F700C0000040E063E081E00E94AE00BD
S1130380C295C07FCBBB41E063E081E00E94AE0038
S11303908FE99FE00197F1F700C0000040E063E0BF
S11303A081E00E94AE008FE19EE40197F1F700C066
S11303B00000CF9108950F931F93CF938C01C0E059
S11303C0F801EC0FF11D8081882321F00E949C012B
S11303D0CF5FF6CFCF911F910F910895CF93DF9305
S11303E000D0CDB7DEB790E8998390EC9A83FE01F4
S11303F0E80FF11D8181860F0F900F90DF91CF914F
S11304000C94130181E00C9413014F925F926F924C
S11304107F928F929F92AF92BF92CF92DF92EF9290
S1130420FF924B015C0161E070E080E090E03AE013
S1130430432E512C612C712C81149104A104B1041C
S1130440A9F0AAE0B0E09B01AC010E9452046B0148
S11304507C01C501B401A30192010E9421046C0D29
S11304607D1D8E1D9F1D49015A01E6CF2AE0C22E33
S1130470D12CE12CF12C623071058105910568F0D5
S1130480A70196010E94210449015A0180E3860FC5
S11304900E949C01B401C501EECFFF90EF90DF9064
S11304A0CF90BF90AF909F908F907F906F905F9010
S11304B04F9008950E945B010E94B7020E94D402EB
S11304C00E94CA0220917E0030E0ACE0B0E00E94BD
S11304D043042B013C01C0907200D0907300E09063
S11304E07400F090750080907A0090907B00A0904A
S11304F07C00B0907D0080E690E00E94DB01C301A7
S1130500B2010E94050260E081E00E94EE0187E6EC
S113051090E00E94DB01A7019601281939094A09D4
S11305205B0960E074E284EF90E00E942104ACE394
S1130530B0E00E9452042EE130E040E050E00E941E
S11305402104CA01B9010E9405022FEF89E698E14E
S1130550215080409040E1F700C000000E94020258
S113056089B7806289BF89B7846089BFABCF8FB5F3
S11305708E7F8FBD8FB58D7F8FBD8EB5877F8EBDEE
S11305808EB58F7E8EBD8FB780688FBF89B784602C
S113059089BF08958EB581608EBD8EB58D7F8EBD69
S11305A08EB58B7F8EBD08958E9817BC16BC8EB504
S11305B080648EBD89B7806289BF8FB780688FBF22
S11305C008951F920F920FB60F9211242F933F9309
S11305D04F935F936F937F938F939F93AF93BF9347
S11305E0EF93FF93809186008F5F809386008091C4
S11305F0860090E0A0E0B0E040918C0050918D0026
S113060060918E0070918F0084179507A607B70735
S113061059F4E0918400F0918500099580918B0054
S113062082BF10928600E3CFFF91EF91BF91AF910B
S11306309F918F917F916F915F914F913F912F91F6
S11306400F900FBE0F901F9018951F920F920FB628
S11306500F9211242F933F934F935F936F937F9344
S11306608F939F93AF93BF93EF93FF9380918600F3
S11306708F5F809386008091860090E0A0E0B0E0D8
S113068040918700509188006091890070918A00A0
S113069084179507A607B70759F4E0918400F091F1
S11306A08500099580918B008CBF10928600E3CF62
S11306B0FF91EF91BF91AF919F918F917F916F9136
S11306C05F914F913F912F910F900FBE0F901F900C
S11306D018951F920F920FB60F9211242F933F93E8
S11306E04F935F936F937F938F939F93AF93BF9336
S11306F0EF93FF9380917F008F5F80937F008091C1
S11307007F008130B9F41092800010928100109221
S113071082001092830086B597B5A0E0B0E0809384
S11307207A0090937B00A0937C00B0937D008EB5FB
S11307308F7B2DC080917F00823059F5E6B5F7B5E7
S1130740209180003091810040918200509183007B
S1130750AFEFBFEF0E945204DC01CB018E0F9F1F4D
S1130760A11DB11D8093760090937700A09378002B
S1130770B093790080917E008F5F80937E0080919A
S11307807E008E3111F410927E008EB580648EBD91
S113079022C080917F008330F1F4E6B5F7B5209153
S11307A08000309181004091820050918300AFEF2E
S11307B0BFEF0E945204DC01CB018E0F9F1FA11DCD
S11307C0B11D8093720090937300A0937400B09352
S11307D0750010927F00FF91EF91BF91AF919F91AF
S11307E08F917F916F915F914F913F912F910F90D6
S11307F00FBE0F901F9018951F920F920FB60F9275
S113080011248F939F93AF93BF9380918000909115
S11308108100A0918200B09183000196A11DB11DB9
S11308208093800090938100A0938200B093830012
S1130830BF91AF919F918F910F900FBE0F901F901A
S11308401895A1E21A2EAA1BBB1BFD010DC0AA1FFD
S1130850BB1FEE1FFF1FA217B307E407F50720F025
S1130860A21BB30BE40BF50B661F771F881F991FA0
S11308701A9469F760957095809590959B01AC01E9
S1130880BD01CF010895A29FB001B39FC001A39FF2
S1130890700D811D1124911DB29F700D811D1124B5
S11308A0911D08950E944304A59F900DB49F900D3F
S11108B0A49F800D911D11240895F894FFCF8C
S11308BE416E67656C3A0076656C6F636974793A5C
S10508CE000024
S9030000FC
